:020000041000EA
:1000000000B5324B212058609868022188439860DF
:10001000D860186158612E4B002199600221596106
:100020000121F02299502B49196001219960352056
:1000300000F044F80222904214D00621196600F024
:1000400034F8196E01211966002018661A6600F04E
:100050002CF8196E196E196E052000F02FF8012189
:100060000842F9D1002199601B49196000215960AB
:100070001A491B48016001219960EB211966A021F2
:10008000196600F012F800219960164914480160C1
:100090000121996001BC002800D000471248134993
:1000A000086003C880F30888084703B5996A0420EC
:1000B0000142FBD001200142F8D103BD02B5186610
:1000C0001866FFF7F2FF186E186E02BD00000240BE
:1000D000000000180000070000035F00212200005C
:1000E000F4000018222000A00001001008ED00E03C
:1000F00000000000000000000000000074B24E7A12
:1001000000200420F7010010C3010010C5010010F9
:10011000C1010010C1010010C1010010C101001097
:10012000C1010010C1010010C1010010C701001081
:10013000C1010010C1010010C9010010CB01001065
:10014000CD010010CD010010CD010010CD01001037
:10015000CD010010CD010010CD010010CD01001027
:10016000CD010010CD010010CD010010CD01001017
:10017000CD010010CD010010CD010010CD01001007
:10018000CD010010CD010010CD010010CD010010F7
:10019000CD010010CD010010CD010010CD010010E7
:1001A000CD010010CD010010CD010010CD010010D7
:1001B000CD010010CD010010CD010010CD010010C7
:1001C00000BE00BE00BE00BE00BE00BE00F04BF888
:1001D000103800BEF2EB8871A82D0110C82D011057
:1001E0003402001090A31AE700202149086006C8D5
:1001F00081F3088810471F48006800282FD10DA4FC
:100200000ECC002902D000F012F8F9E71A491B4A77
:10021000002000E001C19142FCD1194988471949E9
:1002200088471949884700BEFDE701C901C29A42C3
:10023000FBD37047C82D0110C0000020A00500208E
:10024000A83201100000042000000420A832011090
:1002500000100420001004200000000070470B482C
:1002600007F07CF80047EFF30580C0B2704700004C
:1002700008ED00E0000000D0A0050020986B0220EF
:10028000E95700100D030010D95800105756000010
:1002900006005250ABB36053702B01100600525051
:1002A000861C0302802B0110060052505422A29D8E
:1002B000842B011005005250DE65F468A83201104D
:1002C000F8B5C04610B5064C2378002B07D1054B76
:1002D000002B02D0044800E000BF0123237010BDB2
:1002E000A80800200000000060B20010044B10B508
:1002F000002B03D00349044800E000BF10BDC046F6
:1003000000000000AC08002060B2001010B508F03A
:10031000C7F902F0F9FD01F09FFB02F051FE002049
:1003200010BDC046F0B5DE4657464E464546E0B5E0
:1003300083B0C046C046C046D02480262406B601FD
:10034000A661C046C046C0468027FA25FF016D0061
:100350002800A76104F000FE2800676104F0FCFD9E
:100360006B46DD1DEF232B70C046C046C04680277C
:100370003F02A761C046C046C046C046C046C04610
:10038000A661C046C046C0469A4B0122290018000B
:1003900098460AF04DFFC046C046C0466761C04659
:1003A000C046C046C046C046C0466661C046C0465C
:1003B000C04603239B462B70C046C046C046A6617C
:1003C000C046C046C046C046C046C0466761C0463B
:1003D000C046C0460122290040460AF029FFC04617
:1003E000C046C0466661C046C046C04680232B70EA
:1003F000C046C046C046A661C046C046C046C046CC
:10040000C046C0466761C046C046C04601222900BA
:1004100040460AF00DFFC046C046C0466661C04671
:10042000C046C04602239A462B70C046C046C0460E
:10043000A661C046C046C046C046C046C0466761C9
:10044000C046C046C0460122290040460AF0F0FEE0
:10045000C046C046C0466661C046C046C046CF23BF
:100460002B70C046C046C046A761C046C046C046C5
:10047000C046C046C046A661C046C046C04601222E
:10048000290040460AF0D4FEC046C046C046676117
:10049000C046C046C046C046C046C0466661C0466B
:1004A000C046C046002399462B70C046C046C04691
:1004B000A661C046C046C046C046C046C046676149
:1004C000C046C046C0460122290040460AF0B0FEA0
:1004D000C046C046C0466661C046C046C046C1234D
:1004E0002B70C046C046C046A661C046C046C04646
:1004F000C046C046C0466761C046C046C0460122ED
:10050000290040460AF094FEC046C046C0466661D7
:10051000C046C046C04630232B70C046C046C046C9
:10052000A661C046C046C046C046C046C0466761D8
:10053000C046C046C0460122290040460AF078FE67
:10054000C046C046C0466661C046C046C046ED23B0
:100550002B70C046C046C046A761C046C046C046D4
:10056000C046C046C046A661C046C046C04601223D
:10057000290040460AF05CFEC046C046C04667619E
:10058000C046C046C046C046C046C0466661C0467A
:10059000C046C04664232B70C046C046C046A66114
:1005A000C046C046C046C046C046C0466761C04659
:1005B000C046C0460122290040460AF039FEC04626
:1005C000C046C0466661C046C046C0465A462A700C
:1005D000C046C046C046A661C046C046C046C046EA
:1005E000C046C0466761C046C046C0462900404676
:1005F000023A01E0000004400AF01AFEC046C0467C
:10060000C0466661C046C046C04612232B70C04635
:10061000C046C046A661C046C046C046C046C046A9
:10062000C0466761C046C046C04601222900404618
:100630000AF0FEFDC046C046C0466661C046C046E0
:10064000C04681232B70C046C046C046A661C04646
:10065000C046C046C046C046C0466761C046C046A8
:10066000C0460122290040460AF0E2FDC046C046CD
:10067000C0466661C046C046C046E8232B70C046EF
:10068000C046C046A761C046C046C046C046C04638
:10069000C046A661C046C046C04601222900404669
:1006A0000AF0C6FDC046C046C0466761C046C046A7
:1006B000C046C046C046C0466661C046C046C04649
:1006C00085232B70C046C046C046A661C046C046C2
:1006D000C046C046C046C0466761C046C046C04628
:1006E0000122290040460AF0A3FDC046C046C0468C
:1006F0006661C046C046C0464A462A70C046C046EB
:10070000C046A661C046C046C046C046C046C046B8
:100710006761C046C046C0462900404601320AF023
:1007200087FDC046C046C0466661C046C046C0465A
:1007300078232B70C046C046C046A661C046C0465E
:10074000C046C046C046C0466761C046C046C046B7
:100750000122290040460AF06BFDC046C046C04653
:100760006661C046C046C046CB232B70C046C0461B
:10077000C046A761C046C046C046C046C046C04647
:10078000A661C046C046C0460122290040460AF084
:100790004FFDC046C046C0466761C046C046C04621
:1007A000C046C046C0466661C046C046C046392302
:1007B0002B70C046C046C046A661C046C046C04673
:1007C000C046C046C0466761C046C046C04601221A
:1007D000290040460AF02CFDC046C046C04666616E
:1007E000C046C046C0462C232B70C046C046C046FB
:1007F000A661C046C046C046C046C046C046676106
:10080000C046C046C0460122290040460AF010FDFD
:10081000C046C046C0466661C046C046C0464A465D
:100820002A70C046C046C046A661C046C046C04603
:10083000C046C046C0466761C046C046C0462900A3
:10084000404601320AF0F4FCC046C046C04666612C
:10085000C046C046C04634232B70C046C046C04682
:10086000A661C046C046C046C046C046C046676195
:10087000C046C046C0460122290040460AF0D8FCC6
:10088000C046C046C0466661C046C046C0465246E5
:100890002A70C046C046C046A661C046C046C04693
:1008A000C046C046C0466761C046C046C046290033
:1008B0004046013A0AF0BCFCC046C046C0466661EC
:1008C000C046C046C046F7232B70C046C046C0464F
:1008D000A761C046C046C046C046C046C046A661E5
:1008E000C046C046C0460122290040460AF0A0FC8E
:1008F000C046C046C0466761C046C046C046C04606
:10090000C046C0466661C046C046C04620232B7024
:10091000C046C046C046A661C046C046C046C046A6
:10092000C046C0466761C046C046C0460122290095
:1009300040460AF07DFCC046C046C0466661C046DF
:10094000C046C046EA232B70C046C046C046A761D9
:10095000C046C046C046C046C046C046A661C04666
:10096000C046C0460122290040460AF061FCC0464C
:10097000C046C0466761C046C046C046C046C04685
:10098000C0466661C046C046C0464A462A70C04658
:10099000C046C046A661C046C046C046C046C04626
:1009A000C0466761C046C046C04629004046013285
:1009B0000AF03EFCC046C046C0466661C046C0461E
:1009C000C0464A462A70C046C046C046A661C046D8
:1009D000C046C046C046C046C0466761C046C04625
:1009E000C0462900404601320AF022FCC046C046FB
:1009F000C0466661C046C046C046C0232B70C04694
:100A0000C046C046A761C046C046C046C046C046B4
:100A1000C046A661C046C046C046012229004046E5
:100A20000AF006FCC046C046C0466761C046C046E4
:100A3000C046C046C046C0466661C046C046C046C5
:100A400023232B70C046C046C046A661C046C046A0
:100A5000C046C046C046C0466761C046C046C046A4
:100A60000122290040460AF0E3FBC046C046C046CA
:100A70006661C046C046C046C1232B70C046C04612
:100A8000C046A761C046C046C046C046C046C04634
:100A9000A661C046C046C0460122290040460AF071
:100AA000C7FBC046C046C0466761C046C046C04698
:100AB000C046C046C0466661C046C046C046102318
:100AC0002B70C046C046C046A661C046C046C04660
:100AD000C046C046C0466761C046C046C046012207
:100AE000290040460AF0A4FBC046C046C0466661E5
:100AF000C046C046C046C5232B70C046C046C0464F
:100B0000A761C046C046C046C046C046C046A661B2
:100B1000C046C046C0460122290040460AF088FB74
:100B2000C046C046C0466761C046C046C046C046D3
:100B3000C046C0466661C046C046C0463E232B70D4
:100B4000C046C046C046A661C046C046C046C04674
:100B5000C046C0466761C046C046C0460122290063
:100B600040460AF065FBC046C046C0466661C046C6
:100B7000C046C04628232B70C046C046C046A6616A
:100B8000C046C046C046C046C046C0466761C04673
:100B9000C046C0460122290040460AF049FBC04633
:100BA000C046C0466661C046C046C046C7232B70DB
:100BB000C046C046C046A761C046C046C046C04603
:100BC000C046C046A661C046C046C04601222900B4
:100BD00040460AF02DFBC046C046C0466761C0468D
:100BE000C046C046C046C046C0466661C046C04614
:100BF000C04686232B70C046C046C046A661C0468C
:100C0000C046C046C046C046C0466761C046C046F2
:100C1000C0460122290040460AF00AFBC046C046F1
:100C2000C0466661C046C046C04636232B70C046EB
:100C3000C046C046A761C046C046C046C046C04682
:100C4000C046A661C046C046C046012229004046B3
:100C50000AF0EEFAC046C046C0466761C046C046CC
:100C6000C046C046C046C0466661C046C046C04693
:100C700048232B70C046C046C046A661C046C04649
:100C8000C046C046C046C0466761C046C046C04672
:100C90000122290040460AF0CBFAC046C046C046B1
:100CA0006661C046C046C0463A232B70C046C04667
:100CB000C046A761C046C046C046C046C046C04602
:100CC000A661C046C046C0460122290040460AF03F
:100CD000AFFAC046C046C0466761C046C046C0467F
:100CE000C046C046C0466661C046C046C0465523A1
:100CF0002B70C046C046C046A661C046C046C0462E
:100D0000C046C046C0466761C046C046C0460122D4
:100D1000290040460AF08CFAC046C046C0466661CB
:100D2000C046C046C046B1232B70C046C046C04630
:100D3000A761C046C046C046C046C046C046A66180
:100D4000C046C046C0460122290040460AF070FA5B
:100D5000C046C046C0466761C046C046C046C046A1
:100D6000C046C0466661C046C046C04600239A469B
:100D70002B70C046C046C046A661C046C046C046AD
:100D8000C046C046C0466761C046C046C046012254
:100D9000290040460AF04CFAC046C046C04666618B
:100DA000C046C046C0461F232B70C046C046C04642
:100DB000A661C046C046C046C046C046C046676140
:100DC000C046C046C0460122290040460AF030FA1B
:100DD000C046C046C0466661C046C046C046B6234F
:100DE0002B70C046C046C046A761C046C046C0463C
:100DF000C046C046C046A661C046C046C0460122A5
:100E0000290040460AF014FAC046C046C046676151
:100E1000C046C046C046C046C046C0466661C046E1
:100E2000C046C04608239B462B70C046C046C046FD
:100E3000A661C046C046C046C046C046C0466761BF
:100E4000C046C046C0460122290040460AF0F0F9DB
:100E5000C046C046C0466661C046C046C046822302
:100E60002B70C046C046C046A661C046C046C046BC
:100E7000C046C046C0466761C046C046C046012263
:100E8000290040460AF0D4F9C046C046C046666113
:100E9000C046C046C04627232B70C046C046C04649
:100EA000A661C046C046C046C046C046C04667614F
:100EB000C046C046C0460122290040460AF0B8F9A3
:100EC000C046C046C0466661C046C046C046F22322
:100ED0002B70C046C046C046A761C046C046C0464B
:100EE000C046C046C046A661C046C046C0460122B4
:100EF000290040460AF09CF9C046C046C0466761DA
:100F0000C046C046C046C046C046C0466661C046F0
:100F1000C046C0464B462B70C046C046C046A66180
:100F2000C046C046C046C046C046C0466761C046CF
:100F3000C046C0460122290040460AF079F9C04661
:100F4000C046C0466661C046C046C04626232B70D8
:100F5000C046C046C046A761C046C046C046C0465F
:100F6000C046C046A661C046C046C0460122290010
:100F700040460AF05DF9C046C046C0466761C046BB
:100F8000C046C046C046C046C0466661C046C04670
:100F9000C04601232B70C046C046C046A661C0466D
:100FA000C046C046C046C046C0466761C046C0464F
:100FB000C0460122290040460AF03AF9C046C04620
:100FC000C0466661C046C046C046E0232B70C0469E
:100FD000C046C046A761C046C046C046C046C046DF
:100FE000C046A661C046C046C04601222900404610
:100FF0000AF01EF9C046C046C0466761C046C046FA
:10100000C046C046C046C0466661C046C046C046EF
:101010000F232B70C046C046C046A661C046C046DE
:10102000C046C046C046C0466761C046C046C046CE
:101030000122290040460AF0FBF8C046C046C046DF
:101040006661C046C046C04631232B70C046C046CC
:10105000C046A661C046C046C046C046C046C0465F
:101060006761C046C046C0460122290040460AF0DA
:10107000DFF8C046C046C0466661C046C046C046AE
:101080002B232B70C046C046C046A661C046C04652
:10109000C046C046C046C0466761C046C046C0465E
:1010A0000122290040460AF0C3F8C046C046C046A7
:1010B0006661C046C046C0460C232B70C046C04681
:1010C000C046A661C046C046C046C046C046C046EF
:1010D0006761C046C046C0460122290040460AF06A
:1010E000A7F8C046C046C0466661C046C046C04676
:1010F0000E2291462A70C046C046C046A661C04630
:10110000C046C046C046C046C0466761C046C046ED
:10111000C046290040460D3A0AF08AF8C046C0464B
:10112000C0466661C046C046C0465A462A70C046A0
:10113000C046C046A661C046C046C046C046C0467E
:10114000C0466761C046C046C04629004046073ACF
:101150000AF06EF8C046C046C0466661C046C0464A
:10116000C0464E232B70C046C046C046A661C0464E
:10117000C046C046C046C046C0466761C046C0467D
:10118000C0460122290040460AF052F8C046C04637
:10119000C0466661C046C046C046F1232B70C046BB
:1011A000C046C046A661C046C046C046C046C0460E
:1011B000C0466761C046C046C0460122290040467D
:1011C0000AF036F8C046C046C0466661C046C04612
:1011D000C04637232B70C046C046C046A661C046F5
:1011E000C046C046C046C046C0466761C046C0460D
:1011F000C0460122290040460AF01AF8C046C046FF
:10120000C0466661C046C046C04607222A70C04636
:10121000C046C046A661C046C046C046C046C0469D
:10122000C0466761C046C046C04629004046063AEF
:1012300009F0FEFFC046C046C0466661C046C046D3
:10124000C04610232B70C046C046C046A661C046AB
:10125000C046C046C046C046C0466761C046C0469C
:10126000C04601222900404609F0E2FFC046C046C0
:10127000C0466661C046C046C04603218B46297001
:10128000C046C046C046A661C046C046C046C0462D
:10129000C046C0466761C046C046C046012229001C
:1012A000404609F0C5FFC046C046C0466661C0461C
:1012B000C046C04649462970C046C046C046A661E1
:1012C000C046C046C046C046C046C0466761C0462C
:1012D000C046C04601222900404609F0A9FFC04689
:1012E000C046C0466661C046C046C04609232B7052
:1012F000C046C046C046A661C046C046C046C046BD
:10130000C046C0466761C046C046C04601222900AB
:10131000404609F08DFFC046C046C0466661C046E3
:10132000C046C04651462970C046C046C046A66168
:10133000C046C046C046C046C046C0466761C046BB
:10134000C046C04601222900404609F071FFC04650
:10135000C046C0466661C046C046C046E1232B7009
:10136000C046C046C046A761C046C046C046C0464B
:10137000C046C046A661C046C046C04601222900FC
:10138000404609F055FFC046C046C0466761C046AA
:10139000C046C046C046C046C0466661C046C0465C
:1013A000C04651462970C046C046C046A661C046E8
:1013B000C046C046C046C046C0466761C046C0463B
:1013C000C04601222900404609F032FFC046C0460F
:1013D000C0466661C046C046C04649462970C04600
:1013E000C046C046A661C046C046C046C046C046CC
:1013F000C0466761C046C046C0460122290040463B
:1014000009F016FFC046C046C0466661C046C046E9
:10141000C04614232B70C046C046C046A661C046D5
:10142000C046C046C046C046C0466761C046C046CA
:10143000C04601222900404609F0FAFEC046C046D7
:10144000C0466661C046C046C04659462970C0467F
:10145000C046C046A661C046C046C046C046C0465B
:10146000C0466761C046C046C046012229004046CA
:1014700009F0DEFEC046C046C0466661C046C046B2
:10148000C046112189462970C046C046C046A661A3
:10149000C046C046C046C046C046C0466761C0465A
:1014A000C046C04601222900404609F0C1FEC046A0
:1014B000C046C0466661C046C046C04607222A7084
:1014C000C046C046C046A661C046C046C046C046EB
:1014D000C046C0466761C046C046C0462900404677
:1014E000063A09F0A5FEC046C046C0466661C04641
:1014F000C046C04631232B70C046C046C046A661D8
:10150000C046C046C046C046C046C0466761C046E9
:10151000C046C04601222900404609F089FEC04667
:10152000C046C04635006661C046C046C0466B46F0
:10153000DE1DC1233370C046C046C046A561C0460B
:10154000C046C046C046C046C0466761C046C046A9
:10155000C04601223100404609F06AFEC046C0463E
:10156000C0466561C046C046C04648233370C04689
:10157000C046C046A561C046C046C046C046C0463B
:10158000C0466761C046C046C046012231004046A1
:1015900009F04EFEC046C046C0466561C046C04622
:1015A000C04608233370C046C046C046A561C04649
:1015B000C046C046C046C046C0466761C046C04639
:1015C000C04601223100404609F032FEC046C04606
:1015D000C0466561C046C046C0460F239A46337078
:1015E000C046C046C046A561C046C046C046C046CB
:1015F000C046C0466761C046C046C04601223100B1
:10160000404609F015FEC046C046C0466561C0466A
:10161000C046C0460C233370C046C046C046A561D4
:10162000C046C046C046C046C046C0466761C046C8
:10163000C046C04601223100404609F0F9FDC046CF
:10164000C046C0466561C046C046C04631233370BF
:10165000C046C046C046A561C046C046C046C0465A
:10166000C046C0466761C046C046C0460122310040
:10167000404609F0DDFDC046C046C0466561C04633
:10168000C046C04636233370C046C046C046A5613A
:10169000C046C046C046C046C046C0466761C04658
:1016A000C046C04601223100404609F0C1FDC04697
:1016B000C046C0466561C046C046C046534633700A
:1016C000C046C046C046A561C046C046C046C046EA
:1016D000C046C0466761C046C046C04601223100D0
:1016E000404609F0A5FDC046C046C0466561C046FB
:1016F000C046C0464B463370C046C046C046A76190
:10170000C046C046C046C046C046C046A561C046A9
:10171000C046C04601223100404609F089FDC0465E
:10172000C046C0466761C046C046C046C046C046C7
:10173000C0466561C046C046C046782003F00CFC38
:1017400029233370C046C046C046A761C046C04684
:10175000C046C046C046C046A561C046C046C04659
:1017600001223100404609F063FDC046C046C04634
:101770006761C046C046C046C046C046C0466561B7
:10178000C046C046C046782003F0E6FB1323337002
:10179000C046C046C046A761C046C046C046C04617
:1017A000C046C046A561C046C046C04601223100C1
:1017B000404609F03DFDC046C046C0466761C04690
:1017C000C046C046C046C046C0466561C046C04629
:1017D000C04603B0F0BCBB46B246A946A046F0BD29
:1017E00010B51449144809F045FC01210C2002F001
:1017F000E1FB01210A2002F0DDFB01210B2002F0B8
:10180000D9FB0D2002F09CFC0F2002F099FC0E2069
:1018100002F096FCD0238020802180221B068001CC
:101820000902D201586259625A62586199619A61FB
:1018300010BDC04640420F0000000440F0B5CE4647
:1018400047462A2380B583B001AE3370C046C046F8
:10185000C046D024802724063F02A761C046C04668
:10186000C046C046C046C0468025AD01A561C04601
:10187000C046C046704B012231001800984609F05E
:10188000D7FCC046C046C0466761C046C046C04699
:10189000C046C046C0466561C046C046C046C04658
:1018A000C046C046A561C046C046C046C046C04608
:1018B000C0466761C046C046C046002302223100D0
:1018C00040469946338009F0B3FCC046C046C04646
:1018D0006561C046C046C046C046C046C046A56118
:1018E000C046C046C046C046C046C0466761C04606
:1018F000C046C046514B022231004046338009F0B9
:1019000097FCC046C046C0466561C046C046C0465A
:101910002B233370C046C046C046A761C046C046B0
:10192000C046C046C046C046A561C046C046C04687
:1019300001223100404609F07BFCC046C046C0464B
:101940006761C046C046C046C046C046C0466561E5
:10195000C046C046C046C046C046C046A561C04657
:10196000C046C046C046C046C0466761C046C04685
:10197000C0464B46022231004046338009F058FCF5
:10198000C046C046C0466561C046C046C046C04667
:10199000C046C046A561C046C046C046C046C04617
:1019A000C0466761C046C046C046254B0222310092
:1019B0004046338009F03CFCC046C046C0466561E5
:1019C000C046C046C0460A2003F0C6FA2C23337036
:1019D000C046C046C046A761C046C046C046C046D5
:1019E000C046C046A561C046C046C046012231007F
:1019F000404609F01DFCC046C046C0466761C0466F
:101A0000C046C046C046C046C0466561C046C046E6
:101A1000C046C046C046C046A561C046C046C04696
:101A2000C046C046C0466761C046C046C04603B017
:101A3000C0BCB946B046F0BD0000044000EFFFFF57
:101A4000013F000010B50A000100024809F0F0FB58
:101A500010BDC04600000440962210B50021024887
:101A6000920206F0ABFC10BDB40B0020962210B51C
:101A700000210248920206F0A1FC10BDB40B002028
:101A8000F0B5DE4657464E4645460023E0B599B0D0
:101A90001522002112A8119306F090FC01F060FAC3
:101AA000C24B0E901B680193834210D1C04B089328
:101AB0009621BE4B0E9A089889021A6001F054FADA
:101AC00019B0F0BCBB46B246A946A046F0BDB94924
:101AD000050005F09DFC3C2105F09AFC88004018AB
:101AE00040003C2105F094FC28000C00B24905F0B0
:101AF0008FFC23000200B14911A805F0E7FBAC4AB6
:101B0000AF4B0892AA221D88C1009B23091A89B2F3
:101B1000A02440265200944689465B005B1A2804A4
:101B20009BB264002843FF36A34212D20899F71AE9
:101B300088463A01D21B57010133520147441432FF
:101B40009BB238607860B860F86038618D52A3420B
:101B5000ECD301339BB26345E6D111AB079342232B
:101B60004946FF335A1A92B20492A1225200521AE5
:101B700092B201924422FF32521A92B20292A222EF
:101B80005200521A92B203924622FF32521A92B275
:101B900005920C93A3228B4B52009A468023511A34
:101BA0008AB2DB019B4606928023A0229B01520051
:101BB00090469946079B039D1B78019C203B9A0009
:101BC000D3184022FF32561B141B059F0499099419
:101BD0000A96029C069ED51B0B95501A141B951B4A
:101BE000464500D385E0474500D3F1E0414500D3A9
:101BF00048E1039A9B00424500D3F8E1724A2E0166
:101C00009446771B7149AD1B0601301A63448C461C
:101C100041010D910999089A0801411A4901099158
:101C200021010A98091B49010F910101091A0B981A
:101C300049010A910101091A49010B9180217F0193
:101C40004901D21967448C466D011988C80B03D02D
:101C500056460D9C501906535846014206D001982D
:101C6000404503D25646099C501906534846014246
:101C700006D00298404503D256460F9C5019065391
:101C80006046014203D056460A9C501906538020F4
:101C90000001014203D056460B9C50190653802088
:101CA000C000014201D05146118002320233BA42D3
:101CB000CBD1079B01330793049B07339AB2019B57
:101CC000049207339BB20193029B07339BB20293AA
:101CD000039B07339BB20393059B07339BB205938A
:101CE000069B07339BB206930C9B9A4200D061E798
:101CF000DEE6474500D339E1039A424500D3CCE103
:101D00009B00414500D3CEE22F4A0B9994460D012A
:101D10006E1A089F76014D1BBA191437BE196F0150
:101D20000501281A41010B91099980250801411AE2
:101D300049010D9121010A98091B49010F910101E7
:101D4000091A490163448C466D0109971988C80B2B
:101D500004D0544609980B9F1018C45358460142AA
:101D600007D00198404504D2574609980D9C101899
:101D700007534846014207D00298404504D25746CF
:101D800009980F9C10180753294204D064465746FF
:101D900009981018075380200001014201D05146D4
:101DA000118002320233B242D0D182E7206B02208E
:101DB000B40B0020809698000087930360B2001057
:101DC000886B0220DE07000020D90010C80B00201D
:101DD000039A424500D3A1E19B00414500D3ECE2C8
:101DE000CC4ACD49944663448C462E01771BAE1BEA
:101DF0000501281A41010B910999089A0801411A15
:101E000049010D9121010A98091B49010F91010116
:101E1000091A7F0180254901D21967448C46760151
:101E20006D0109961988C80B04D0544609980B9E79
:101E3000101884535846014207D00198404504D2F7
:101E4000564609980D9C101806534846014207D083
:101E50000298404504D2564609980F9C1018065324
:101E6000294204D06446564609981018065380202B
:101E7000C000014201D05146118002320233BA4201
:101E8000D0D116E7019A9B00424500D350E2A14A07
:101E900028019446461B08997601281A8A1914319C
:101EA0008F1941010D91099980250801411A4901B5
:101EB000099121010A98091B49010F910101091A91
:101EC0000B9849010A910101091A490163448C46A2
:101ED0006D015E461988314204D054460D9E099822
:101EE000B61834524E46314207D0029E464504D2BF
:101EF00054460D9886180F983452294207D0039EF5
:101F0000464504D254460D9886180A9834528020CB
:101F10000001014204D00D985446861860463452A0
:101F20008020C000014201D05146118002320233AC
:101F30009742CED1079B01330793049B07339BB293
:101F40000493019B07339BB20193029B07339BB21F
:101F50000293039B07339BB20393059B07339BB20A
:101F60000593069B07339BB2069323E6039A4245EB
:101F700000D369E2029A9B00424500D338E1654AEA
:101F8000270194460201101A089A6344944609995D
:101F90003F1B0A9C0E012201761A121B520180255A
:101FA000400176017F016044664467449444002206
:101FB0006D01995ACC0B04D0049C444501D254467F
:101FC00084525C46214204D0019C444501D25446CF
:101FD000B4524C46214201D05446BC52294202D050
:101FE000614654468C520232142AE2D161E6494AD3
:101FF0000899944663440F938C46142363449C468B
:102000002E01771BAE1B0501281A80257F01CA19F6
:10201000099943010801411A67449C464B0121017B
:10202000091B0A934B010D930B9B76011901C91AE9
:102030004B010B930F9B2D0109961988C80B04D0F7
:10204000664654460998801884535846014207D082
:102050000198404504D2564609980A9C80180653B8
:102060004846014207D00298404504D25646099896
:102070000D9C80180653294204D0564609980B9CA3
:10208000801806538020C000014201D051461180C3
:10209000023202339742D0D10BE6029A9B004245AE
:1020A00078D21C4A270194460201101A089A634408
:1020B000944609993F1B0B9C0E012201761A121BB4
:1020C00052018025400176017F01604466446744E7
:1020D000944400222D01995ACC0B04D0049C444511
:1020E00001D2544684525C46214204D0019C4445AE
:1020F00001D25446B4524C46214201D05446BC52FF
:10210000294202D0614654468C520232142AE2D14E
:10211000CFE5C04620D90010C80B0020029A9B00D2
:10212000424500D392E0C74A099994460201101A29
:10213000089A634494460E012A012701521B761A1D
:102140003F1B52018025400176017F0160446644B7
:10215000674494440022ED00995ACC0B04D0049CAF
:10216000444501D2544684525C46214204D0019C2D
:10217000444501D25446B4524C46214201D0544603
:10218000BC52294202D0614654468C520232142A73
:10219000E2D18EE5AB4A802594460201101A089AD6
:1021A000634494460022099940010E01761A0B9966
:1021B00076010F017F1A7F016044664467442D0158
:1021C000995ACC0B04D0049C444501D25446845205
:1021D0005C46214204D0019C444501D25446B4528D
:1021E000294201D05146B9520232142AE8D160E5A1
:1021F000944A802594460201101A089A6344944632
:102200000022099940010E01761A0A9976010F0100
:102210007F1A7F016044664467446D01995ACC0B74
:1022200004D0049C444501D2544684525C46214269
:1022300004D0019C444501D25446B452294201D0F5
:102240005146B9520232142AE8D132E57D4A2F01B3
:1022500094460201101A089A7F1B63448025944615
:102260000022099940010E01761A76017F0160442F
:1022700066446744ED00995ACC0B04D0049C444555
:1022800001D2544684525C46214204D0019C44450C
:1022900001D25446B452294201D05146B9520232B9
:1022A000142AE8D105E5674A0A989446099A6344D6
:1022B0001601B61A089A27019446110002013F1B25
:1022C000121A520176017F016644674494446246C3
:1022D0008C4609920B9A09991001801A8025802456
:1022E0004001604400228C466D0124010A90099649
:1022F0005846995A014205D00198404502D25046AD
:10230000099EB0524846014204D00298404501D28D
:102310005046B852294202D0604656468652214263
:1023200002D051460A9881520232142AE0D101E6C5
:10233000444A0A99D618089A270194460B013F1B74
:102340005B1A5B017F0167449C44634694460B998A
:1023500009930B015B1A2901099A491B5B0163442C
:10236000802580248020490161440A9394460023FB
:102370006D012401C0000B9709914946F25A0A42A7
:1023800005D00299414502D251460B9FF9522A428B
:1023900005D00399414502D261465746CF522242A9
:1023A00002D057460A99CF52024202D052460999AA
:1023B000CA520233142BE0D1BCE5224A0A98944653
:1023C000099A63441601B61A089A27019446110027
:1023D00002013F1B121A520176017F0166446744D5
:1023E000944462468C46099228010999401B802436
:1023F00080254001604400228C466D01E4000A9073
:1024000009965846995A014205D00198404502D292
:102410005046099EB0524846014204D002984045B9
:1024200001D25046B852294202D0604656468652E2
:10243000214202D051460A9881520232142AE0D138
:1024400078E5C04620D90010029A9B0042452CD264
:10245000284A09999446089D0201101A63440A010A
:10246000AC46511A00222601361B40014901760173
:102470006044614466449C5AE50B04D0049D454584
:1024800001D2554685525D462C4204D0019D4545FA
:1024900001D255468D524D462C4201D05446B4527D
:1024A0000232142AE7D1FFF704FC124A0899944635
:1024B00063448C460021099C0201101A2201121B60
:1024C00040015201604462445C5AE50B04D0049D13
:1024D000454501D2554645525D462C4204D0019CEB
:1024E000444501D25446545202311429ECD1FFF72D
:1024F000E0FBC04620D90010F0B54546DE46574601
:102500004E46E0B5A02587B0049010A80024005FD7
:102510006D000C1CA94202DB4021FF310C1CA021E4
:1025200024B21D1C49008B4202DB4023FF331D1CDB
:102530002DB2131CEF2A00DDEF231BB29C46031CB7
:10254000EF2800DDEF231BB20593AC425EDA2E1BB1
:10255000B3B29A4633B29B4601230293059B62466F
:102560009C454BDAD71ABBB2994601233FB203937D
:10257000624690B2A0225346520090464A464B44CF
:102580001BB2A1B20192009741450CD2EF280AD8A4
:102590004022FF32561A3201921B1201204E049F34
:1025A000121852009753AC421ED09EB27200009F88
:1025B00012B2BA420ADB019C3300A146029C4B4492
:1025C000A14649449EB20CB21BB289B25A45DBDC2B
:1025D000039A56449446604402B2944633B280B2A1
:1025E0004145D3D3AC42E0D1059A9445DDD107B043
:1025F000F0BCBB46B246A946A046F0BD9F1ABBB28E
:10260000994601235B423FB20393B1E7661BB3B225
:102610009A4633B29B4601235B4202939EE7C04633
:10262000B40B0020F0B54546DE4657464E46E0B5B1
:102630008DB0804616A810C8008809940A9000281A
:1026400065D0087992B206904C7907944C7903943E
:10265000002C5CD09BB20B930123013292B2049206
:102660000A689C4640330892FF3300229B4605923D
:10267000059A099B00279B5C079A203B5343089AC5
:102680005B0091460B9C99444B461D88002827D03F
:10269000EF2C25D8012823D00F221026049B01946B
:1026A00002972900674611410F4210D05B450ED2B8
:1026B0004021FF31C91A8A46019C5746A24644462A
:1026C0000901C91B0901154F51444900CC53013A76
:1026D000B11A0133C9B29BB28842E2D8019C029F71
:1026E00002239A460137039B0134BFB2D144A4B2FE
:1026F000BB42C9D80699049B8946059A4B440132CE
:102700009BB20592049393B20A9A9342B0D30DB050
:10271000F0BCBB46B246A946A046F0BDB40B0020B3
:10272000F0B54546DE4657464E469C46E0B509ABF9
:10273000050000201B5E98466346002B28DD4023E1
:10274000FF339A4693B29B46A0235C465B0088B257
:10275000994600214444114EA4B2434689B2002B4D
:1027600010DD53461A1A13019B1A1B015A4648459D
:1027700008D2EF2A02D8D7187F00BD53013292B297
:102780009442F6D10131013009B280B28C45E4D1D6
:10279000F0BCBB46B246A946A046F0BDB40B002033
:1027A000F0B54546DE4657464E469C46E0B509AB79
:1027B000050000201B5E98466346002B29DD402360
:1027C000FF339A4693B29B46A0235B00994642464C
:1027D0005B4688B200219C1A114EA4B2434689B2CE
:1027E000002B10DD53461A1A13019B1A1B015A467F
:1027F000484508D2EF2A02D8D7187F00BD53013AC6
:1028000092B29442F6D10131013009B280B28C45C6
:10281000E4D1F0BCBB46B246A946A046F0BDC046D6
:10282000B40B0020F0B55746DE464E464546E0B5AF
:1028300085B001920EAA0027D75F0F9C7B4A944275
:1028400000D17DE07A4A944206D005B0F0BCBB4688
:10285000B246A946A046F0BD002FF6DDDA0FD31828
:10286000002294464022FF3293466A4696885B10C7
:1028700098460393F31A02936E4B89B29A463B0033
:102880000D0007008946404661469C46002819DB3A
:102890005B465B1B1C01E41AA02324015B009D42E4
:1028A00010D2029B00915B189BB200E01300EF2B4B
:1028B00003D851461A19520057525A1C92B29E42DE
:1028C000F4D10099013D01310138ADB26145DDDB44
:1028D0004023FF33494699466B469D88A023380024
:1028E00067465B009A46039B42469B46514B002637
:1028F0009C463B0007009846AB440092009B002B8F
:1029000015DB4B465B1A1C01E41A240151450ED21B
:102910005B469B1B9BB200E01300EF2B03D8604685
:102920001A19520017525A1E92B29D42F4D1009BBE
:102930000139013B0136009389B24645DEDB84E76D
:10294000002F00DC81E7DA0FD318002294464022E2
:10295000FF3293466A4696885B1098460393F31AB3
:102960000293344B89B29A463B000D00070089461A
:10297000404661469C46002819DB5B465B1B1C01F8
:10298000E41AA02324015B009D4210D2029B009117
:102990005B189BB200E01300EF2B03D851461A19C5
:1029A000520057525A1C92B2B342F4D100990135E9
:1029B00001310138ADB26145DDDB4023FF334946CB
:1029C00099466B469D88A023380067465B009A466F
:1029D000039B42469B46174B00269C463B00070044
:1029E0009846AB440092009B002B15DB4B465B1ACC
:1029F0001C01E41A240151450ED25B469B1B9BB27D
:102A000000E01300EF2B03D860461A19520017524A
:102A10005A1E92B2AB42F4D1009B0131013B013608
:102A2000009389B24645DEDB0FE7C04678B200105E
:102A300080B20010B40B0020F0B5DE4657464E467B
:102A40004546E0B503269DB26B00F61ACB43140051
:102A50000A00DB171A409146621BD3434F1BDB175A
:102A60001A40FB43DB171F40E343DB1785B012B26C
:102A700023408846039300920B0049468246FFF7A5
:102A80003BFDA1B28B46290059440AB24346504649
:102A9000029100924946FFF72FFD039A3FB2434649
:102AA000390050460092FFF727FD4346220000946C
:102AB00039005046FFF720FD434636B29BB2002452
:102AC000B146039337E04A46013DADB2631B9B001C
:102AD0000A329B181BB299462B005B4402935B465B
:102AE000039F5A1B3E1B36B212B23100434650467A
:102AF0000092FFF701FD6B4608229A5E31004346C3
:102B000050460092FFF7F8FC5B467E1B1A1B36B25C
:102B100097B212B24346310050460092FFF7ECFCE8
:102B20006200BA1812B24346310050460092FFF7D5
:102B3000E3FCA5420AD34B460134A4B2002BC2DC0D
:102B4000A30006334B441BB29946C8E705B0F0BC5E
:102B5000BB46B246A946A046F0BDC046F0B5DE462B
:102B600057464E464546E0B503279EB27300FF1A0E
:102B7000CB43DB1714000B40921B9946D343DB1762
:102B80001A408B1B0D00D943C9170B4087B01BB2ED
:102B90000393E343DB1712B2A9B2234098468B4656
:102BA0002B00494600928246FFF7A6FCA3B29C4642
:102BB000B444029363461AB24946504605930092C4
:102BC0002B00FFF799FC33000399424688465B448B
:102BD0001DB25046049300922B00FFF78DFC3FB2CC
:102BE0002B004146220050460094FFF785FC00254B
:102BF000B84646E04246013EB6B2AB1B9B000A32E5
:102C00009B181BB29846029B9C46B44463460593AE
:102C100033005B4404935B465C1B029B27B29A1B08
:102C20006B0099B289464C4412B224B23900230099
:102C300050460092FFF760FC6B4614215A5E5046E6
:102C4000230039000092FFF757FC5A46029B941B61
:102C50005A1B93B203936B4610215F5E12B224B2EB
:102C60003B00210050460092FFF746FC039A3B00D0
:102C70004A4412B2210050460092FFF73DFCAE429A
:102C80000AD343460135ADB2002BB3DCAB000633AB
:102C900043441BB29846BEE707B0F0BCBB46B24601
:102CA000A946A046F0BDC046F0B557464E4645463B
:102CB000DE46E0B587B01F0010AB060000201B5EAB
:102CC00088B29846DB0F43445B1001939BB2190016
:102CD0008446614402930BB2059203908CB2049334
:102CE000002F2BDD93B240229B460023FF329246F9
:102CF000013291465D46204A454494461A00ADB2E1
:102D0000434692B2002B13DD53461B1B1901C91A0F
:102D100009014C450CD25B460092EF2B03D862466A
:102D200058184000865201339BB29D42F5D1009A5B
:102D30000132013412B2A4B29742E1D1029D059C46
:102D4000AC466444019B24B22200300004999846AA
:102D5000FFF704FF039A434694466744AC46674432
:102D60002200300039B2FFF7F9FE07B0F0BCBB46D5
:102D7000B246A946A046F0BDB40B0020E1239B015A
:102D800070B59C46D2250A490A4C0B4861442D0275
:102D900022000A4BCB181E68F033168002328B4299
:102DA000F9D1E13CF038FF3C191DA842F0D170BDCB
:102DB000BCEE0010B6200220400A0100C0C7FFFF91
:102DC00030B50B4B0B4D9C4628000B4C78306544BE
:102DD00003002200783B02CB118002328342FAD1F9
:102DE000E13C78331800FF3CAB42F1D130BDC04626
:102DF000880E00008CE0001070A9002070B5374BE1
:102E0000374C9B6A22689B1A364A93420ADD002897
:102E100009D0012825D0022814D003282DD02F4B0B
:102E20009B6A236070BDFEF721FE2F4B1B78002BA1
:102E300030D000F051FE2D4B1B78002B39D100F023
:102E4000BBFEECE72A4B18602A4B1B78012B39D0CC
:102E5000002BE4D1284B1A68032A3CD003221A60C5
:102E6000DDE7FEF703FE204B1B78002BE1D1214D5F
:102E7000214B28781968013011E01D4B1A4D18605C
:102E80002B78002B18D11B4D2B78002B20D1002341
:102E90002B70C4E7174D184B287819680138401873
:102EA00004F08EFA154B64205B5C2B7002F076F90F
:102EB000B5E700F023FEB2E7114800F053FF00230E
:102EC0002B70ACE701210F4A13784B401370A6E733
:102ED000FEF7CCFDDBE701321A60A0E700400540B9
:102EE0000C6B022040420F00946B02208E6B02207C
:102EF000346B02208F6B02208404002080040020A9
:102F0000FC260110936B022010B502F013F9FEF7B6
:102F100067FCFDF707FAFEF791FC104B01220C212C
:102F2000002001F0A1F801220C21012001F072F82B
:102F300001220C21022001F06DF801220C21042055
:102F400001F068F801220C21052001F063F801224C
:102F50000C21032001F05EF810BDC046FD2D0010CD
:102F600010B502F0E7F810BD10B5FEF76BFD10BD0F
:102F7000052010B502F012F9D0231B065B689B06F2
:102F80000AD501210C4A13784B40DBB21370002B99
:102F90000DD1642002F002F9D0231B065B68DB062A
:102FA00000D410BD9620400002F0F8F8F9E703487D
:102FB00000F07AFEEDE7C046946B02201C2701105A
:102FC000F0B5DE4657464E464546E0B585B0FFF7BC
:102FD000C7FF404F386000F0AFFA00F0B9FB00F0D7
:102FE00015FA00F091FB00F0F5F83B4B3B4D99468C
:102FF0009B6A3B4E98464B469A6A3A4B1A603A4B4C
:103000009B463A4B9A464B469C6AFFF7B1FF2A68AB
:103010003B683749D31A8B4202D93378002B26D02C
:10302000FFF79EFF4346334A2860E31A934203DDCD
:10303000314B1B78002B1ED053461B78002B13D02E
:10304000022B38D0012B3BD0032B29D0FEF70EFDED
:103050003378002BD7D0A0231922009328210020F9
:103060006E33FFF75DFBCEE700F0B4F8F0E73A60AF
:10307000FEF706FDD4E700F06FFA05F0CBF81F4B22
:10308000010018605B461B68581C0C281DDC5B4661
:10309000186000F043FB822002F080F8A046CBE7E6
:1030A00000F076FB00F086FC154B1B6818000393BC
:1030B00000F0A4FBCCE700F0C7F9FFF75FFEC7E71D
:1030C0005B46186800F03CFBC2E70D235A460D2012
:1030D0001360DEE7B463022000400540186B022055
:1030E000946B02200C6B0220880400208F6B02205E
:1030F00035820000404B4C00936B02200067022099
:1031000060660220322310B5040082B06E226E2168
:10311000009300203C33FFF703FB200008F026F863
:1031200080B2019082237522034904480094FFF77E
:1031300079FA02B010BDC046ACEE0010DE07000008
:10314000F0B5C6460A2600B582B0040019231D4812
:103150000F009046FF21D7220096FFF7E1FA1925CC
:103160008C21194BDC221748019349001423009548
:10317000FFF758FB1923D722282112480096FFF7A2
:10318000CFFA124BDC220193282114230D4800951D
:10319000FFF748FB2378002B03D102B080BCB84670
:1031A000F0BD200007F0E2FF4346094AD90080B293
:1031B00089180190DC234B2238000094FFF732FA83
:1031C000EBE7C046DE07000078B2001080B20010C6
:1031D0009CEE001070B50A261C4C82B0200019230A
:1031E000D722FF210096FFF79BFA19258C21184B57
:1031F00020000193DC22142300954900FFF712FB05
:1032000020001923D72228210096FFF789FA114BB5
:1032100020000193DC22142328210095FFF702FBF4
:10322000A0231922009332210B483C33FFF778FA90
:1032300012230193094B372200200949009355239B
:10324000FFF7F0F900F0E2F902B070BDDE07000010
:1032500078B2001080B20010FA0700003827011081
:10326000ACEE0010F0B5DE464E4645465746E0B59A
:103270008B4683B001225A4980465A48FFF760FFC7
:10328000032300934023CD22FF3300215648FFF74C
:1032900047FA5B46D9460C2B01DD0C239946534B6C
:1032A000142500269A461FE0312B3CDC2FB2C823A0
:1032B000CE22009339003B004D48FFF71DF9B14580
:1032C00002D05B460B2B09DDCD231C1B24B23B0037
:1032D000CD223900F8200094FFF70EF9A02319350C
:1032E00001365B009D423BD04246B300D3581AB230
:1032F0001C1CB42A00DDB42424B2312BD4D83B4B9F
:10330000EF1F1888C8233FB23900CD220093B83B85
:10331000FFF746FA39000E23CD2231480094FFF71B
:103320003FFA2FB2C3E753461888C823EF1F3FB2B6
:1033300039000093CD22B83BFFF732FAF82039006C
:103340000E23CD2200944001FFF72AFAC4222FB2A7
:10335000121B05233900F82012B2FFF7FFFBA6E786
:103360003F3BFF3B23490193234B0A7BF820083165
:1033700000930023FFF756F9B423CC2200930021D9
:103380001E48AC3BFFF70CFACD25002401262AB2DB
:10339000013407230092264200D00B23082118484D
:1033A000FFF7AAF8053D242CF1D1164B122100227B
:1033B0009A5EA0230092F8205B00FFF79DF8124B65
:1033C000122100229A5EA023F82000925B00FFF7F2
:1033D00093F803B0F0BCBB46B246A946A046F0BD88
:1033E000070700004C270110E61F0000886B022031
:1033F000FF1B00009CEE001064270110AE1E0000B1
:10340000DE0700008C0400209004002010B51F216E
:103410001B2000F0CFFD002200211B2000F0E2FD68
:1034200000211B2000F078FE054B1A6880235B0109
:103430005340E022D2011340024A136010BDC0463F
:1034400000C0044000D0044030B502222D492E486F
:1034500089B0FFF775FE80232C4A5B0111684B4051
:10346000E021C9010B402A490B600421294B196056
:10347000FC3113680B42FCD0506803AC0004000C14
:1034800004F0AAFA244A254B04F035FA0022244B12
:1034900004F031FA04F0E8FA04F0F4FE214B224A79
:1034A00004F00BFA04F0E0FA204904F048FE04F0BE
:1034B00025FF0021051C0A2001F036FD1B49281CB0
:1034C00004F029FE04F0DEFE194A00900191142157
:1034D000200003F00FFF3C233222782100930020CC
:1034E0002833FFF71DF9200007F040FE80B201905D
:1034F0004B2378220F4903480094FFF793F809B053
:1035000030BDC046DE0700001829011000C004408D
:1035100000D0044000E004406666666666660A40C5
:103520000000503FE17A843F7B14AE470000204109
:1035300068270110ACEE001010B5152000F000FE59
:10354000D024802324069B03A362162000F0F8FDFC
:103550008023DB03636210BDF8B5D02480272406E6
:10356000FF0314200021676101F0EEFD1D4AA761F1
:10357000936A63689B0205D40121966A63685B0DB8
:103580001942FAD0D022120653689B0206D50121B7
:103590001448856A53685B0D1942FAD1124B134ADD
:1035A000A81B1A60124B134A1A6004F00CFE04F0B8
:1035B00069FE114A114B04F09EF9A022104B12062D
:1035C00004F099F900220F4B04F095F904F04CFA3D
:1035D0000D4904F0B4FD04F091FE0B4904F09BFD8D
:1035E000F8BDC04600400540686B02200000F04175
:1035F000846B02207D82AE432D431CEBE2361A3FE2
:103600004FD075400000E03F0000C842F0B5D02424
:1036100080272406FF031420002187B0676101F092
:1036200093FD2C4AA761936A63689B0205D401212C
:10363000966A63685B0D1942FAD0D022120653686D
:103640009B0206D501212348856A53685B0D194208
:10365000FAD1214B214AA81B1A60214B214A02AD05
:103660001A6004F0B0FD04F00DFE1F4A1F4B04F079
:1036700042F9A0221E4B120604F03DF900221D4B18
:1036800004F039F904F0F0F91B4904F058FD04F096
:1036900035FE194904F03FFD1849041C04F08EFD65
:1036A00000280BD0C8230F212800154A5B0003F027
:1036B00021FE2800FFF726FD07B0F0BD201C04F016
:1036C000E1FD104A009001910F21280003F012FE45
:1036D000EFE7C04600400540686B02200000F04163
:1036E000846B02207D82AE432D431CEBE2361A3FF1
:1036F0004FD075400000E03F0000C8420000C843C2
:10370000782701108427011010B5342200210248C7
:1037100004F054FE10BDC046A466022070B50C0033
:103720000C2807DD054D30222800291D07F090FDEB
:103730002C6370BD014B8000C150FAE7A4660220E3
:1037400010B501000148FFF78DFD10BDA4660220F1
:1037500010B507F073FC1F211C2000F02BFC002289
:1037600000211C2000F03EFC00211C2000F0D4FCB5
:10377000054B1A6880239B015340E022D20113407D
:10378000024A136010BDC04600C0044000D004408F
:1037900030B58BB003AC144914480122FFF7D0FCBC
:1037A0002200134B23CB23C21E20196868441160EA
:1037B0009B8800219380072204F000FE3C23BE2258
:1037C0003C21009300202833FEF7AAFF200007F0D9
:1037D000CDFC80B20190C6233C22064906480094E5
:1037E000FEF720FF0BB030BDDE07000018290110E6
:1037F00090270110ACEE001007070000F0B5CE4690
:10380000474680B50400192183B05E283DDD03F0F2
:10381000D7FDF023894698460426372400250F2734
:10382000842021B228236422009740013C340135D2
:10383000FFF73AFAA4B2B542F2DB042E48D04B4669
:10384000013B042B33D973425E41842344465B0120
:103850009C462148764206403E34664424B24F4698
:1038600007236B2221003000FFF7E6F80F22053F07
:103870007B000092210030001BB25532FEF750FF52
:1038800003B0C0BCB946B046F0BD03F099FD1921A4
:103890000600200003F094FD89463101891B8B004E
:1038A0009846182CB9DC4B46013B042BCBD873420D
:1038B0005E41842341465B019C467042064E3E3188
:1038C000304007236B22604409B2FFF7B5F8D7E711
:1038D000FEF7D6F8D4E7C04678F0FFFFF0B5CE4645
:1038E000474680B5040083B05F2832DC192103F01D
:1038F00067FD06001921200003F062FD3701BF1BA0
:103900008946BF00002E29D0192C38D0BBB298466A
:10391000751C032E4AD03C240F276C43244E3734A9
:10392000A4B2308821B22823642200973C340135A8
:10393000FEF7F6FEA4B2042DF3D14B4659000F2337
:103940003731414430886422009309B2B933FEF71D
:10395000E7FE03B0C0BCB946B046F0BD0B00013B6A
:10396000042B05D913290ADD002301259846D2E747
:1039700007236B223E21F820FFF75EF8F4E7BBB285
:103980001C003E3424B2210098466B220723F82005
:10399000FFF752F84B460F22053B5B0000922100D7
:1039A000F8201BB25532FEF7BBFEB1E7004EC4E76C
:1039B000886B0220F0B5052089B001F0EFFB0422EE
:1039C0008021394B49001A60384A13680B42FCD0F9
:1039D000506803AE80B204F0F6FB354904F0AFFB4B
:1039E000344904F098FB041C04F014FC1421030077
:1039F000314A0500300003F07DFC23232D226E2187
:103A000000200093A533FEF78BFE300007F0AEFBDD
:103A100080B22A4901902F23294873220096FEF78D
:103A200001FE2849201C04F0C1FB002805D02649CE
:103A3000201C04F0B3FB002824D1244F386804F084
:103A4000C2FB011C061C201C04F05FFB204904F093
:103A5000B5FB00280ED1211C301C04F056FB1C497C
:103A600004F0ACFB002809D1201C04F005FC3860F0
:103A700009B0F0BD2800FFF7C1FEF5E72800FFF709
:103A80002DFFF1E70F25282364223721F820009528
:103A9000FFF70AF90F4B642218887321C823009599
:103AA000FEF73EFE094FDFE700E0044000C004409F
:103AB0000000C84200F07F458C270110ACEE0010DA
:103AC000070700000000A0410000C8416066022016
:103AD00000004040886B0220074A87231088692233
:103AE00000B583B0282100925B00503AFEF718FE23
:103AF000FDF7C6FF03B000BD886B0220244BF0B574
:103B00001888A02383B01922282100936E33FEF772
:103B100007FE0E231F4F01931F4B7D2239001F48C4
:103B200000932323FEF77EFD082301931C4B87227D
:103B300039001A4800932D23FEF774FD0423390041
:103B40000193184B32221848103100932F23FEF7AF
:103B500069FDFFF735F9FDF793FF00225A24134B57
:103B6000134E1A7020CE280007F000FB23B280B25B
:103B7000193401902D2239000E480095A4B2FEF7A9
:103B800051FDA52CEED1FDF77BFF03B0F0BDC04683
:103B9000886B0220A4EE0010AC270110070700007C
:103BA000BC270110C8270110F30500008E6B02200E
:103BB00094040020DE070000304A87231088A022EA
:103BC000F0B583B0009228215B00873AFEF7A8FD8C
:103BD0000E232B4C2B4D01932B4B210028000093DF
:103BE0007D222323FEF71EFD08230193274B21008E
:103BF0002800009387222D23FEF714FD04232100C3
:103C00000193234B10313222224800932F23FEF7D9
:103C100009FDFFF7D5F8FDF733FF01221E4D1F4BBD
:103C2000EF681A70380007F0A1FA1D4E80B221002B
:103C30005A232D22019000973000FEF7F3FC2F69E4
:103C4000380007F093FA80B2210073232D220190EF
:103C500000973000FEF7E6FC6D69280007F086FA51
:103C600080B28C232D222100019000950D48FEF793
:103C7000D9FCFDF705FF03B0F0BDC046886B0220FC
:103C8000A4EE001007070000AC270110BC270110AC
:103C9000C8270110F3050000940400208E6B022059
:103CA000DE070000FF1F0000244BF0B51888A0239A
:103CB00083B01922282100936E33FEF731FD0E23C5
:103CC0001F4F01931F4B7D2239001F480093232370
:103CD000FEF7A8FC082301931C4B872239001A48E1
:103CE00000932D23FEF79EFC042339000193184B0B
:103CF00032221848103100932F23FEF793FCFFF770
:103D00005FF8FDF7BDFE00225A24134B134E1A70C4
:103D100020CE280007F02AFA23B280B2193401908D
:103D20002D2239000E480095A4B2FEF77BFCA52C8D
:103D3000EED1FDF7A5FE03B0F0BDC046886B0220B2
:103D4000A4EE0010AC27011007070000BC270110EB
:103D5000C8270110F30500008E6B02209404002098
:103D6000DE07000010B5FDF781FE10BDD0231B0655
:103D70001B68F0B59A00454690464146894ADE46A2
:103D80005258574693465A1E934130224E465B4244
:103D90001A401300844AE0B5944683B0634401930B
:103DA000824B08269A463500083DEA08130001991F
:103DB00008339B005C58002C23D05B46002B2AD094
:103DC00001230F27994639002140274213D04B4643
:103DD00052464046AB4012581A420CD10722080006
:103DE0002A40920090400200EB0871483C339B004F
:103DF0001A502800D84724090135002C01D0B542BB
:103E0000E1D30836282ECED103B0F0BCBB46B24673
:103E1000A946A046F0BD0F2319002140234207D038
:103E200047460E3BAB406148C059184200D18DE077
:103E30002309F11F002BE4D00F22100018401A4272
:103E40000FD0012345468B40584A52591A4208D197
:103E50000722CB08114089008840554A3C339B001B
:103E60009850230AB11F002BCBD00F22100018400E
:103E70001A420FD0012345468B404C4A52591A42F0
:103E800008D10722CB08114089008840484A3C33BA
:103E90009B009850230B711F002BB2D00F221000F3
:103EA00018401A4241D1230C311F002BA9D00F22F8
:103EB000100018401A4252D1230DF11E002BA0D041
:103EC0000F22100018401A425AD1230EB11E002BA7
:103ED00097D00F22100018401A420FD001234546F8
:103EE0008B40324A52591A4208D10722CB0811405E
:103EF000890088402E4A3C339B009850240F721E44
:103F0000002C00D17DE701235146404693400958DB
:103F1000194200D075E70721D3080A409200944067
:103F20003C33234A9B009C506BE7012345468B4062
:103F30001E4A52591A42B6D10722CB0811408900B5
:103F400088401B4A3C339B009850ACE707231D4038
:103F5000AD00A940164B3C329200D15068E70123D6
:103F600045468B40114A52591A42A5D10722CB0827
:103F70001140890088400E4A3C339B0098509BE7D3
:103F8000012345468B40094A52591A429DD10722C6
:103F9000CB08114089008840054A3C339B0098506B
:103FA00093E7C0462C66022000410140386B022096
:103FB00000400140094A830094464022634410B502
:103FC0001C68C0006240C024144080225201134388
:103FD0001C60034B9C466044416010BD04C001401E
:103FE000004001400A4B80009C46042360440029A5
:103FF00001D00C230821002A00D10B000268534095
:104000000C221A4080235B01184302607047C046AF
:1040100004C00140D0231B061B6830B50500581EA4
:1040200083410F485C4284460720302328402340C8
:104030008000EC08814020000A4D3C306344800041
:10404000A40041511B19002A04D08022920113437D
:10405000196030BDC022920113431960F9E7C046D0
:104060000041014000400140F8B51E00D0231B066E
:104070001C680700631E9C41302364421C40224B95
:1040800015009C46C30807201A0038408000814074
:104090003C321E48644492009B001150E418002DED
:1040A00011D080239B011C43D02321601B061C6878
:1040B000174FA4003B59002B11D0002E1ED03E51AB
:1040C000002D16D1F8BDC0239B011C43D0232160D5
:1040D0001B061C680E4FA4003B59002BEDD1002E8F
:1040E000EED000220D200B493E5100F04BF9002D7F
:1040F000E8D001210D2000F0E3F8E3E70D200549A9
:1041000000F032FADBE7C0460041014000400140C8
:104110002C6602206D3D0010084B80009C466044D8
:10412000002905D080239B0118434023036070477A
:10413000C0239B01184340230360F8E704C00140FB
:104140000123D0228340120693629361094A8300BF
:104150009446402263441968C0004A40C02111407F
:104160008022520113431960034B9C46052360448F
:104170004360704704C001400040014070B5EFF358
:10418000108C72B60D4D2B68002BFCD0BFF35F8FE7
:104190000724CB08C618C05C01230C40A3401C00B8
:1041A0000440034207D103433370BFF35F8F2C6099
:1041B0008CF3108870BD100001F090FB2C0100D032
:1041C000F8B54746CE46884680B5EFF3108C72B6F8
:1041D000214D2C68002CFCD0BFF35F8F9A422CD865
:1041E000D4080727055D061901241740BC402C425E
:1041F0001FD007210127894609E0D408055D06196B
:104200004C4639001440A1400C00294211D0013223
:104210009342F2D201204042BFF35F8F00220E4B47
:104220001A608CF3108800280FDBC0BCB946B0467A
:10423000F8BD2C4310003470EEE7BFF35F8F00230E
:104240002B608CF31088012040424346002BECD0B9
:10425000089801F043FBC0462C0100D0024B1868BF
:104260008007C00F7047C04600C006400021044BC5
:10427000044ABFF35F8F02C39342FAD17047C0462E
:10428000000100D0800100D0044A1078431CDBB24A
:10429000172B00D9102313707047C046AC040020C0
:1042A00000B5054B83B00100009318221F2303487B
:1042B000FFF786FF03B000BD94280110346602208A
:1042C00001238340002904D0034A1360034A13608A
:1042D0007047034A1360FBE780E200E000E100E082
:1042E00080E100E001238340014A13607047C0462B
:1042F00000E200E0084B10309B688000C358002BA0
:1043000007D0064A00209B1A2F229A424041C0B291
:1043100070470020FCE7C04600ED00E0B00400203C
:10432000024B10309B688000C058704700ED00E0E1
:1043300070B50D00EFF3108672B60F4A1368002BAC
:10434000FCD0BFF35F8F0D4B10309B6884001B596E
:104350000B4A934203D09D4201D001F0D7FA074B9C
:104360009B681D51BFF35F8FBFF35F8F0022024B2D
:104370001A6086F3108870BD240100D000ED00E0C3
:10438000CD010010F0B557464E46DE464546E0B535
:1043900085B0060002911700EFF3108B72B6674AE2
:1043A0001368002BFCD0BFF35F8F0025644B5D5773
:1043B0009A46002D00DAA5E06B00624C03935B196E
:1043C0009B009846A146C1444B4652469B79103605
:1043D00013705D4BB2009B68019299580B1B2F2BF9
:1043E00034D95A4B994200D0A5E0039B584A9C46C9
:1043F000584B6544AD006353434602336519E418D6
:10440000554B0121043B1B1B1B055B0D13436B80AC
:10441000524BEF71AB80FF23AB71029BAB604B46FD
:104420000B431900484B019A9B689950BFF35F8F6B
:10443000BFF35F8F0022414B1A608BF3108805B0E9
:10444000F0BCBB46B246A946A046F0BD01200A001A
:104450008243D379BB422FD845464E46130040498C
:104460001B1B5B415943090D3A4B63533A4B0235D1
:104470006519043B5B1B1B05354D5B0D2B4373809E
:104480000426B446E0444444131F1B1B4C46A17150
:1044900002991B05A16049465B0D2B43A380314B5C
:1044A000E77101431360BDE75800C0188000201871
:1044B000C679BE422CD902000623D356002BF3DA6C
:1044C000101D8246BD200002804604267642B44676
:1044D000E14450464E46361A3005400D8246564657
:1044E0001B48957106439680039A944665441D4A7D
:1044F000AD00641922604246A371029BA280E7715D
:10450000A3608FE701F002FA002553465D5753E799
:10451000101D824690884005001584464046D444CC
:10452000664604302018301AE0260005400D360299
:1045300030438046C9E701F0E9F956E7240100D08D
:10454000906B0220B004002000ED00E0CD010010CF
:1045500000E0FFFF00A1FFFFE004002000BDFFFF1F
:10456000AAAA000001488047F0B5DE4657464E46ED
:104570004546E0B50C0083B0EFF3108A72B65A4A94
:104580001368002BFCD0BFF35F8F1022914681444B
:104590004A46564B96009B689D59554B98469D42FE
:1045A00005D0A54216D0534FEB1B2F2B14D94F4BE0
:1045B0009B689D51BFF35F8FBFF35F8F00224A4B13
:1045C0001A608AF3108803B0F0BCBB46B246A94615
:1045D000A046F0BD1D00EAE7012383409B465A46F2
:1045E000454B1B681A4000925A46444B1A60BFF371
:1045F0005F8FFBF738FE0190002803D0814501D082
:1046000001F084F901232A009A4393689C4208D15F
:104610005FE04B005B189B00FB189968A14211D02A
:104620001A00062151560029F3DA009B002B05D011
:104630005A46334B1A60304B1A60B8E75A462F4B34
:104640001A60B4E706215956002921DB4A005018A8
:1046500080003C188046A0689860E079D8710620F8
:1046600020569871002824DBA488F81A64052415C4
:1046700044440019E0240005400D240220439880A2
:104680005218204B9200BF181A781970BA71CCE7F3
:104690000199002910D1FF3191711B49918019496D
:1046A0000A789A71194ADB1B5B415A43120D0A7052
:1046B000BBE7BD200002E2E7154A1649D21A083AC4
:1046C0005002400D01439980134952080A43DA8091
:1046D000ABE70621515613000029B7DA019A002AE8
:1046E000EAD14546DBE7C046240100D000ED00E0FA
:1046F000CD010010B004002000E100E080E100E006
:1047000080E200E0906B022000BDFFFFAAAA00003B
:10471000EA04002000F0FFFF00F8FFFFF8B50125D4
:1047200004000543FBF79FFDEFF3108C72B6214A9E
:104730001368002BFCD0BFF35F8F1F4E2100B768BA
:104740001E4A1F4B891A49414B431B0D59B2830026
:10475000F858A8421CD00623D3568B421CD01223F3
:10476000D3568B4222D01E23D3568B4220D02A23ED
:10477000D35603208B4210D0124B1A781970A271B5
:10478000BFF35F8F00220B4B1A608CF31088F8BDCB
:10479000B2680D48D050EFE7002043001B189B0083
:1047A000D218FF239371094B9380E5E70120F4E7CA
:1047B0000220F2E7240100D000ED00E0B004002068
:1047C000AAAA0000906B0220CD01001000BDFFFFDF
:1047D000054B064A1360064A136053609360D3602A
:1047E00013615361936170478080808000E400E032
:1047F00004E400E0D02300B51B061B680100074855
:1048000083B0C018064B002200930523FFF7D8FCA5
:10481000002801DB1F23181A03B000BD806B0220A3
:10482000B0280110024B9C4661448900016070472A
:104830004000003483680B4810B5844661446244EC
:10484000090112019A18591854684B6801209C42BA
:1048500001D802D00020C0B210BD12680B689A4285
:10486000F9D8F7E7FFFFFF0F0A4B1968EFF3108045
:1048700072B60A68002AFCD0BFF35F8F1B68BFF3D3
:104880005F8F00221A6080F3108840BF0020002153
:104890007047C0464C6B0220F8B557464E46454619
:1048A000DE46E0B599460CAB1C780DAB1B780600D4
:1048B00090469A460768002C11D1BC7B002C42D050
:1048C00065003B682D19033D59194B78BB73002BCC
:1048D00000D1FB7300238B704B700B7004E06500FC
:1048E0003B682D19033D5919B2682A4B944642463C
:1048F000E3181B0163441A604A465A600A9A9A6098
:104900000B9ADA6000238B704B700B707B7B9B469D
:10491000002B2BD022005946B8687B6898473A682C
:10492000002816D05B4658465B005B445519033B94
:10493000A870D118D35C002B00D06B705B460C7054
:104940007B73A34513D0F0BCBB46B246A946A04634
:10495000F8BD5B465B005B44033BD3189C70511968
:10496000525D002A00D05A705B460B707C73424641
:104970004B46307D00F0ACFC051E06D05346002BA4
:1049800003D12100306800F0C5FE0E9B002BDAD069
:104990001D70D8E7FFFFFF0FF0B5DE464E465746C5
:1049A00045460023E0B58DB00A936B4B8200D35887
:1049B0000B90994600239B464B46079300F0BAFBA9
:1049C000079C06000F006268EFF3108572B613684B
:1049D000002BFCD022000794BFF35F8F2468637B19
:1049E0009946002B67D092685C4B90464B441B0164
:1049F000984443461A685B6810001900801BB9414F
:104A000000295FDD0B9800F063FC00230026984628
:104A100000279A46079C6368BFF35F8F5A461A6067
:104A200085F310885346002B08D10028C6D10DB05D
:104A3000F0BCBB46B246A946A046F0BD0A9B414623
:104A400018024B461843D047089009916268EFF36B
:104A5000108572B61368002BFCD00794BFF35F8FEC
:104A60000899099A002A48DB114303D0079B1B6968
:104A7000002B5DD1079B1B68D97B002907D04A001A
:104A8000521819688C4649466244033A51704A46A6
:104A9000DA734B46079A013BD168CA5C0132CA54AB
:104AA0005B46079A13615368BFF35F8F5A461A60DB
:104AB00085F3108882E700230026984600279A464F
:104AC0000020A7E7002901D100289BD10021200068
:104AD00000F0A2FD43461E685F689B68079A9A46ED
:104AE0004346DB689846D3684B44013B1B780A93E6
:104AF0001B020343136100208CE72369002BB9D00C
:104B000033003C005B1A94411A002300A74219D8D5
:104B10009F421BD0594604910121039149460291BD
:104B200041460191514607980091FFF7B5FEB7E75E
:104B300000F000FB089A099B06000F0092197B41C8
:104B40009942E5D901225242D317E3E79642E1D9CF
:104B500001225242D317DDE7246B0220FFFFFF0F33
:104B6000F8B557464E464546DE46E0B5404D8146CF
:104B70008A466A68EFF3108872B61368002BFCD07F
:104B8000BFF35F8F2E68B47B002C39D06700336889
:104B90003F19033FDB195A78B273002A00D1F27330
:104BA000A968344A8C464946A21812016244116031
:104BB00051465160304991600021D160997059701F
:104BC0001970737B9B46002B35D022001900B0680A
:104BD000736898473268002820D05B4658465B00CF
:104BE0005B44D719033BB870D118D35C002B00D0BD
:104BF0007B705B460C7073735C451DD0002626E00D
:104C00006B68BFF35F8F1C6088F3108801204042FF
:104C1000F0BCBB46B246A946A046F8BD5B465B0069
:104C20005B44033BD3189C70D119D25D002A00D09D
:104C30005A705B460B7074734A465346287D00F0E9
:104C400047FB061EDAD02100286800F063FDEB6800
:104C50001B19013B19786B68BFF35F8F00221A6044
:104C600088F310880020002ED2D108022043CFE71D
:104C7000F8040020FFFFFF0F6948001010B5124C28
:104C80006368002B04D00A211048FFF7CBFD10BD4C
:104C900023000F4A1021206800F0DCFB032000F005
:104CA0003DFA032000F084FB03200A4900F0CAFA11
:104CB000FFF7EAFA084B9C46032360442375074B31
:104CC00080006060DC60DEE7F80400204C6B0220AE
:104CD000354800109949001040000034246B022030
:104CE00000487047F8040020F0B557464E46454648
:104CF000DE46E0B585B0019310AB1B780600039348
:104D000000239A46984600927268EFF3108972B6B3
:104D10001368002BFCD0BFF35F8F3568AC7B002C91
:104D200049D067002B683F19033FDB195A78AA73F3
:104D3000002A00D1EA73B1684F4A8C460098019965
:104D4000A21812016244106051600E9991600F998F
:104D5000D16042469A705A701A706B7B9B46002B4A
:104D600045D022001900A8686B6898472A68002877
:104D700030D05B4658465B005B44D719033BB870A4
:104D8000D118D35C002B00D07B705B460C706B732A
:104D90005C452DD0F3681B19013B18787368BFF38D
:104DA0005F8F42461A6089F310885346002B2CD13E
:104DB0000002204307E07368BFF35F8F1C6089F334
:104DC00010880120404205B0F0BCBB46B246A9465F
:104DD000A046F0BD5B465B005B44033BD3189C7070
:104DE000D119D25D002A00D05A705B460B706C73EB
:104DF000307D009A019B00F06BFA82460028C9D0F2
:104E00002100306800F086FCC4E7039B002B30D003
:104E10000E9B00200F999847030004000D000B43E0
:104E200027D000290DDA0098019902000B00121B0F
:104E3000AB41994213D818D000920193039B9A4634
:104E400062E700F077F902000B00A4185D410094BE
:104E50000195A94203D8F1D100998A42EED90123E4
:104E60005B42DC1700930194E8E700999142E3D993
:104E7000F5E70020A7E7C046FFFFFF0FF0B50400ED
:104E80000D0006267642F717C64636196F4100B563
:104E90008F4213D810D000F04DF932003B00121AA7
:104EA0008B41002B14DC002B37D02900200000F0B0
:104EB000B9F980BCB846F0BD8642ECD9002600277F
:104EC00000F038F932003B00121A8B41002BEADD6A
:104ED00030003900FFF744FE0028E6DB0023984647
:104EE000BC460F4A0F4F7B6A9C4504D8B96A8E4274
:104EF000DBD99C45D9D11168EFF3108072B60B68ED
:104F0000002BFCD0BFF35F8F1368BFF35F8F414668
:104F1000196080F3108820BFE5E7002AC5D0D7E7E5
:104F20004C6B02200040054070B504000D0000F0FD
:104F300001F902000B0020002900801859418B4222
:104F400005D802D0FFF79AFF70BD8242FAD901203E
:104F50004042C117F6E7C04670B5060000F0EAF817
:104F6000FA2204000D00002330000021920003F01B
:104F7000AFF8001969418D4205D802D0FFF77EFFD6
:104F800070BD8442FAD901204042C117F6E7C046FD
:104F9000F8B5CE46474680B506000C00FFF7E0FDA9
:104FA00000280CDC2D4B0020596A8C4203D89B6AE8
:104FB0000130B34245D3C0BCB946B046F8BD20BFAE
:104FC000274D6A68EFF3108772B61368002BFCD088
:104FD000BFF35F8F2B68C1B29C465B7B8B4235D0A1
:104FE000FF2303405A009146624612689944904656
:104FF0004A464244033A9278002A1DD0EA68000AE1
:1050000090464344013B1B78C0B2834221D06B6879
:10501000BFF35F8F00221A6087F310880F4A0020C9
:10502000536A9C42C7D8926A0130B242C3D2E01A96
:10503000421E9041C0B2BEE72B699842E7D12A6177
:10504000E5E7601A431E9841C0B2B4E7FF2303406E
:10505000D4E7604600F05EFBD9E7C046004005405B
:10506000F8040020F0B5D6464F464646C0B5EFF3EB
:1050700005833F22134018001038EFF3108C72B6EE
:10508000204D2A68002AFCD0BFF35F8F0122110057
:1050900081401D4C884661631C4917000E788A4682
:1050A0003100C1400F400A4209D1BFF35F8F2F602A
:1050B0008CF31088E0BCBA46B146A846F0BD14494E
:1050C0008200646A51588C420FD3124BD258434627
:1050D0009E4353461E70BFF35F8F00232B608CF3FB
:1050E0001088002AE6D09047E4E70B4A9B009046E0
:1050F00043441A681A60BFF35F8F00232B608CF360
:105100001088D7E7280100D000400540956B0220A9
:10511000586B02201C650220D03F054010B50100ED
:10512000024A0348FFF72AF810BDC046CC280110F8
:105130008D6B0220034B596A0A00986A596A8A42A9
:10514000FAD170470040054070B504000D00124AC6
:10515000536A1900966A536A8B42FAD130001900DB
:1051600024184D41AB4211D80ED02B000A494A6A8F
:105170009A42FCD307D1084A02E0516A994202D10F
:10518000916AA142F9D370BDA642EED90123012450
:105190006442E5175B42E9E7004005401F4B70B5EC
:1051A00098420BD84201121A920010181C4AC000F3
:1051B000916A936A5B1A9842FBD870BDFA22002369
:1051C0009200002102F084FF04000D00144A536A8B
:1051D0001900966A536A8B42FAD1300019002418DC
:1051E0004D41AB4213D9012301246442E5175B42D0
:1051F0000B494A6A9342FCD89A42DED1084A02E03F
:10520000516A8B42D9D1916A8C42F9D8D5E7AB4229
:1052100001D02B00ECE7A642E5D8FAE79BC42000BA
:1052200000400540064A536A9942FCD807D1044B16
:1052300002E05A6A914202D19A6A8242F9D37047D7
:105240000040054070B504000D00EFF3108672B603
:105250001A4A1368002BFCD0BFF35F8F002D1BD0C0
:105260002000FFF75DF8164981420AD02000FFF7C1
:105270005FF801212000FFF723F80123A340114A22
:105280001360114BA400E550BFF35F8F00220B4B5E
:105290001A6086F3108870BD0B4BA200D550012216
:1052A000A2400A4920000B7893430B700449FFF792
:1052B0005BF900212000FFF703F8E5E7280100D0A3
:1052C00065500010386005401C650220956B022077
:1052D000F0B54F46D6464646C0B507002F4C616A2A
:1052E0000D00A66A616AA942FAD18B4208D805D09E
:1052F0000120E0BCBA46B146A846F0BDB242F7D99B
:10530000EFF3108A72B6264801680029FCD0BFF37B
:105310005F8F0125BD402349204C88460978894686
:105320002943C9B28C46414660460870391D1E4863
:10533000890065630A51B9000B50216A0020294297
:1053400019D0616A0800A66A616A8142FAD18B426B
:1053500019D801D1B24216D8CC451DD00F4B1F2011
:105360001D625D6301230740BB40104A1E38136075
:1053700043464A461A70BFF35F8F0022084B1A60FB
:105380008AF31088B5E70020BFF35F8F0022044B3B
:105390001A608AF31088ACE70120ECE70040054072
:1053A000280100D0956B0220586B022080E200E0BB
:1053B000EFF3108C72B60A490B68002BFCD0BFF3D8
:1053C0005F8F01238340074A0748136202789A439C
:1053D0000270BFF35F8F00230B608CF3108870475F
:1053E000280100D000400540956B022070B50500F3
:1053F00014001600002915D00C00002A12D0806875
:105400006B689847296800280ED073009B196200CA
:10541000033B1219CB18033A9C7088188A5C002A47
:1054200015D10670200070BD63001B197200033B8C
:105430009219CB18033A9E7088188A5C002A02D110
:1054400004703400EEE75A7004703400EAE75A70D2
:105450000670E7E730B583600023CCB243730133B5
:10546000047342608373C4730D000068012C06D975
:10547000421C0133DBB2137003329C42F9D1FF218D
:1054800029404B005918002340180338437030BDA1
:10549000F8B5CE46474606000C0080B5002907D077
:1054A0004D0003686D18033D5A195778002F04D139
:1054B0002000C0BCB946B046F8BD7900C91903390F
:1054C0008846434459788946002159705170736861
:1054D0003A002100806898473368002814D042467B
:1054E0009A18947059195B5D002B00D053700F709F
:1054F000270049463000FFF7CBFF3900020030009B
:10550000FFF774FF0400D3E7424641465D19AF70D0
:105510009A185B5C002B00D06B701470E9E7C046F2
:10552000F0B557464546DE464E46E0B50D006B00E9
:1055300001685B19DF1E0400C85D83B00192CA19BF
:1055400000284CD043001B18033BCB185E78B446B0
:10555000002E16D1019E002E3ED0E67B002E04D0F8
:1055600073009B19CB18033B5D70E57300282FD1A6
:105570000023537003B0F0BCBB46B246A946A04618
:10558000F0BD72006244033A89184A7890460022BE
:105590004A7091465A70010032002000FFF726FF42
:1055A00043468246002B07D05B0021684344033BFF
:1055B000CB185A78002A16D1424651462000FFF7F0
:1055C00015FF2168019BCA19002BC6D10028CFD036
:1055D00043001B18033BCB1800219970C8E7019BBF
:1055E000002BBAD1C4E75000801803380918487856
:1055F000834648464870587041462000FFF7F6FE43
:10560000594680462000FFF743FF41460200200034
:10561000FFF7ECFE8046CFE7F0B557464546DE463D
:105620004E46E0B583B00191457B04006B000068F5
:105630005B19DF1EC15DC21900294ED04B005B18FB
:10564000033BC3185E78B446002E18D1019E002E8D
:1056500040D0E67B002E04D073009B19C318033B97
:105660005D70E573002931D1002328005370617308
:1056700003B0F0BCBB46B246A946A046F0BD7200DE
:105680006244033A80184278904600224270914664
:105690005A7020003200FFF7A9FE43468246002BD5
:1056A00007D05B0021684344033BCB185A78002A9B
:1056B00017D1424651462000FFF798FE019B01009A
:1056C0002068C219002BC4D10029CDD04B005B1833
:1056D000033BC31800209870C6E7019B002BB8D18C
:1056E000C2E75000801803380918487883464846B6
:1056F0004870587041462000FFF778FE59468046B2
:105700002000FFF7C5FE414602002000FFF76EFEB5
:105710008046CEE770B5040000292CD0437B8B4235
:105720002ED0056848004018033828188278002ACF
:1057300021D053009B18033BEA5CEE188A4202D149
:105740001BE0002A08D053009B18033BEB185A7843
:105750008A42F6D142785A70002301228370437046
:105760002000FFF7DDFE617B02002000FFF73EFE18
:105770006073012000E0002070BD43783370EBE7D8
:1057800001221900FFF7CCFE60730120F4E7C04648
:1057900010B50400FEF778FD01002000FFF742F885
:1057A000FF232371BFF35F8F10BDC04610B5040007
:1057B000FEF76AFD01002000FFF734F8FF23A38005
:1057C000BFF35F8F10BDC04610B504000120FEF787
:1057D00067FD044B9C46604480002060BFF35F8FF0
:1057E00010BDC046400000342C4B2D4A70B51A60E5
:1057F0002C4A2D4B2D491A6014008B689C43FBD119
:105800002B4D2C4EB54208D2013E761BB60808CD72
:10581000984723000134B342F9D100F07DF8264ABD
:10582000214B1A60214A9368DB43DB01DD09002B21
:10583000F9D14022214B224C224E9A675A671A67AF
:10584000DA66B44208D223682000002B20D0083446
:10585000FFF7ACFFB442F6D31B4E1C4CC022A1682C
:10586000300002F0B1FDA660FEF700FDFEF7B0FFCC
:10587000FFF704FA164C174EB44208D2013E361B0D
:10588000B60808CC98472B0001359E42F9D170BD6F
:105890000834FFF77DFFB442D5D3DDE700E00040D8
:1058A000BFCDFBFEFE7F3C0000F0004000C000408A
:1058B0008805002098050020FFFFFF0100F001404F
:1058C00080050020880500200000002000ED00E099
:1058D00098050020A005002000BEFDE70FB400B52C
:1058E000084883B002F0A6FE049B002B07D005A950
:1058F0001800019101F012FD034802F09BFE00BE6A
:10590000FDE7C046F02801100029011010B501483C
:10591000FFF7E4FF0429011030B50C2083B000F03C
:10592000B7F9FEF79BFC00280ED0944B944A1A60FE
:105930005A609A60DA601A615A619A61DA611A6291
:10594000904A5A6203B030BD8F4CA06700F0F4F962
:1059500001228E4B1A60636C012BFCD103228C4B0D
:105960001A60894A936B012BFCD101330121894ACA
:1059700089480093043300F033F90523874A0093E4
:105980000121874800F02CF9864B5A68FF2A02D87B
:10599000802252005A608022784C7D4B216912018E
:1059A000804D1A60002905D0606901F031FD013099
:1059B0000138FDD1E0217B4B02201A681140802282
:1059C00052012A43116019684840032101401160C7
:1059D00004219A681142FCD08022802192012A433E
:1059E00009011160802252005A606F4B23616F4B96
:1059F0005968FF2900D85A600321644A6B4B116033
:105A000002399A681142FCD0E0201A6810408022C6
:105A100052011A43106018684840032101400220D7
:105A2000116062498A681042FCD0802292011343BF
:105A3000802212011A6080225D4B52004A6063612D
:105A40005C4B5968FF2900D85A6080225A4BE169A3
:105A50001201584D1A60002905D0606901F0D8FC88
:105A600001300138FDD1E02252490B681A408023F1
:105A70005B012B431A60802380229B012B43120180
:105A80001A6080223E4B52004A60E3614B4B5968DA
:105A9000FF2900D85A608022494B216A1201474DE4
:105AA0001A60002905D0606901F0B2FC01300138AC
:105AB000FDD1E02241490B681A4080235B012B4352
:105AC0001A60802380229B012B4312011A608023DD
:105AD00080225B004B602A4BD2022362394B59680B
